{
  "contractName": "Election",
  "abi": [
    {
      "inputs": [],
      "stateMutability": "nonpayable",
      "type": "constructor"
    },
    {
      "anonymous": false,
      "inputs": [
        {
          "indexed": false,
          "internalType": "string",
          "name": "candidate",
          "type": "string"
        },
        {
          "indexed": false,
          "internalType": "uint256",
          "name": "votes",
          "type": "uint256"
        }
      ],
      "name": "Result",
      "type": "event"
    },
    {
      "anonymous": false,
      "inputs": [
        {
          "indexed": true,
          "internalType": "address",
          "name": "voter",
          "type": "address"
        },
        {
          "indexed": false,
          "internalType": "string",
          "name": "candidate",
          "type": "string"
        }
      ],
      "name": "Voted",
      "type": "event"
    },
    {
      "inputs": [],
      "name": "admin",
      "outputs": [
        {
          "internalType": "address",
          "name": "",
          "type": "address"
        }
      ],
      "stateMutability": "view",
      "type": "function",
      "constant": true
    },
    {
      "inputs": [
        {
          "internalType": "string",
          "name": "",
          "type": "string"
        }
      ],
      "name": "votes",
      "outputs": [
        {
          "internalType": "uint256",
          "name": "",
          "type": "uint256"
        }
      ],
      "stateMutability": "view",
      "type": "function",
      "constant": true
    },
    {
      "inputs": [],
      "name": "voteCandi1",
      "outputs": [],
      "stateMutability": "nonpayable",
      "type": "function"
    },
    {
      "inputs": [],
      "name": "voteCandi2",
      "outputs": [],
      "stateMutability": "nonpayable",
      "type": "function"
    },
    {
      "inputs": [],
      "name": "voteCandi3",
      "outputs": [],
      "stateMutability": "nonpayable",
      "type": "function"
    },
    {
      "inputs": [],
      "name": "getResult",
      "outputs": [
        {
          "internalType": "uint256",
          "name": "",
          "type": "uint256"
        },
        {
          "internalType": "uint256",
          "name": "",
          "type": "uint256"
        },
        {
          "internalType": "uint256",
          "name": "",
          "type": "uint256"
        }
      ],
      "stateMutability": "view",
      "type": "function",
      "constant": true
    }
  ],
  "bytecode": "0x608060405234801561001057600080fd5b50336000806101000a81548173ffffffffffffffffffffffffffffffffffffffff021916908373ffffffffffffffffffffffffffffffffffffffff160217905550610acb806100606000396000f3fe608060405234801561001057600080fd5b50600436106100625760003560e01c806303cac2c014610067578063101d544414610071578063b99ef1fa1461007b578063de292789146100ab578063ec50a759146100cb578063f851a440146100d5575b600080fd5b61006f6100f3565b005b610079610133565b005b610095600480360381019061009091906105f9565b610173565b6040516100a2919061065b565b60405180910390f35b6100b36101a1565b6040516100c293929190610676565b60405180910390f35b6100d3610297565b005b6100dd6102d7565b6040516100ea91906106ee565b60405180910390f35b6101316040518060400160405280600681526020017f63616e64693300000000000000000000000000000000000000000000000000008152506102fb565b565b6101716040518060400160405280600681526020017f63616e64693200000000000000000000000000000000000000000000000000008152506102fb565b565b6001818051602081018201805184825260208301602085012081835280955050505050506000915090505481565b60008060008060009054906101000a900473ffffffffffffffffffffffffffffffffffffffff1673ffffffffffffffffffffffffffffffffffffffff163373ffffffffffffffffffffffffffffffffffffffff1614610235576040517f08c379a000000000000000000000000000000000000000000000000000000000815260040161022c9061078c565b60405180910390fd5b600160405161024390610803565b908152602001604051809103902054600160405161026090610864565b908152602001604051809103902054600160405161027d906108c5565b908152602001604051809103902054925092509250909192565b6102d56040518060400160405280600681526020017f63616e64693100000000000000000000000000000000000000000000000000008152506102fb565b565b60008054906101000a900473ffffffffffffffffffffffffffffffffffffffff1681565b6040518060400160405280600681526020017f63616e6469310000000000000000000000000000000000000000000000000000815250805190602001208180519060200120148061038e57506040518060400160405280600681526020017f63616e6469320000000000000000000000000000000000000000000000000000815250805190602001208180519060200120145b806103db57506040518060400160405280600681526020017f63616e6469330000000000000000000000000000000000000000000000000000815250805190602001208180519060200120145b61041a576040517f08c379a000000000000000000000000000000000000000000000000000000000815260040161041190610926565b60405180910390fd5b60018160405161042a91906109ac565b90815260200160405180910390206000815480929190610449906109f2565b91905055503373ffffffffffffffffffffffffffffffffffffffff167fcb6783276e8a4347387036bbfea000268f0a4b1f8c46ac79980609f2af8d2acd826040516104949190610a73565b60405180910390a250565b6000604051905090565b600080fd5b600080fd5b600080fd5b600080fd5b6000601f19601f8301169050919050565b7f4e487b7100000000000000000000000000000000000000000000000000000000600052604160045260246000fd5b610506826104bd565b810181811067ffffffffffffffff82111715610525576105246104ce565b5b80604052505050565b600061053861049f565b905061054482826104fd565b919050565b600067ffffffffffffffff821115610564576105636104ce565b5b61056d826104bd565b9050602081019050919050565b82818337600083830152505050565b600061059c61059784610549565b61052e565b9050828152602081018484840111156105b8576105b76104b8565b5b6105c384828561057a565b509392505050565b600082601f8301126105e0576105df6104b3565b5b81356105f0848260208601610589565b91505092915050565b60006020828403121561060f5761060e6104a9565b5b600082013567ffffffffffffffff81111561062d5761062c6104ae565b5b610639848285016105cb565b91505092915050565b6000819050919050565b61065581610642565b82525050565b6000602082019050610670600083018461064c565b92915050565b600060608201905061068b600083018661064c565b610698602083018561064c565b6106a5604083018461064c565b949350505050565b600073ffffffffffffffffffffffffffffffffffffffff82169050919050565b60006106d8826106ad565b9050919050565b6106e8816106cd565b82525050565b600060208201905061070360008301846106df565b92915050565b600082825260208201905092915050565b7f4f6e6c792061646d696e2063616e20706572666f726d2074686973206163746960008201527f6f6e000000000000000000000000000000000000000000000000000000000000602082015250565b6000610776602283610709565b91506107818261071a565b604082019050919050565b600060208201905081810360008301526107a581610769565b9050919050565b600081905092915050565b7f63616e6469310000000000000000000000000000000000000000000000000000600082015250565b60006107ed6006836107ac565b91506107f8826107b7565b600682019050919050565b600061080e826107e0565b9150819050919050565b7f63616e6469320000000000000000000000000000000000000000000000000000600082015250565b600061084e6006836107ac565b915061085982610818565b600682019050919050565b600061086f82610841565b9150819050919050565b7f63616e6469330000000000000000000000000000000000000000000000000000600082015250565b60006108af6006836107ac565b91506108ba82610879565b600682019050919050565b60006108d0826108a2565b9150819050919050565b7f496e76616c69642063616e646964617465000000000000000000000000000000600082015250565b6000610910601183610709565b915061091b826108da565b602082019050919050565b6000602082019050818103600083015261093f81610903565b9050919050565b600081519050919050565b60005b8381101561096f578082015181840152602081019050610954565b60008484015250505050565b600061098682610946565b61099081856107ac565b93506109a0818560208601610951565b80840191505092915050565b60006109b8828461097b565b915081905092915050565b7f4e487b7100000000000000000000000000000000000000000000000000000000600052601160045260246000fd5b60006109fd82610642565b91507fffffffffffffffffffffffffffffffffffffffffffffffffffffffffffffffff8203610a2f57610a2e6109c3565b5b600182019050919050565b6000610a4582610946565b610a4f8185610709565b9350610a5f818560208601610951565b610a68816104bd565b840191505092915050565b60006020820190508181036000830152610a8d8184610a3a565b90509291505056fea26469706673582212207963bc54426a1452eb52da5ba3118cf74c213291f02757abda42eb0b236e0cc764736f6c63430008110033",
  "immutableReferences": {},
  "source": "// SPDX-License-Identifier: GPL-3.0\r\npragma solidity ^0.8.0;\r\n\r\n// Function for creating election - casting vote and retrieving result\r\ncontract Election {\r\n    address public admin; // The public address of the contract\r\n    mapping(string => uint256) public votes; // A mapping to store vote counts for all the candidates\r\n\r\n    event Voted(address indexed voter, string candidate); // Event emitted when a voter casts a vote\r\n    event Result(string candidate, uint256 votes); // Event emitted to announce the result\r\n\r\n    constructor() {\r\n        admin = msg.sender; // Set the contract creator as the admin\r\n    }\r\n\r\n    modifier onlyAdmin() {\r\n        require(msg.sender == admin, \"Only admin can perform this action\");\r\n        _;\r\n    }\r\n\r\n    function voteCandi1() public {\r\n        vote(\"candi1\"); // Public function to vote for candidate1\r\n    }\r\n\r\n    function voteCandi2() public {\r\n        vote(\"candi2\"); // Public function to vote for candidate2\r\n    }\r\n\r\n    function voteCandi3() public {\r\n        vote(\"candi3\"); // Public function to vote for candidate3\r\n    }\r\n\r\n    // Function for counting the vote of the user\r\n    function vote(string memory candidate) private {\r\n        require(\r\n            keccak256(bytes(candidate)) == keccak256(bytes(\"candi1\")) ||\r\n                keccak256(bytes(candidate)) == keccak256(bytes(\"candi2\")) ||\r\n                keccak256(bytes(candidate)) == keccak256(bytes(\"candi3\")),\r\n            \"Invalid candidate\"\r\n        );\r\n\r\n        votes[candidate]++; // Increment the vote count for the chosen candidate\r\n        emit Voted(msg.sender, candidate); // Emit the Voted event\r\n    }\r\n\r\n    // Function for getting result or total number of votes for each candidate\r\n    function getResult() public view onlyAdmin returns (uint256, uint256, uint256) {\r\n        return (votes[\"candi1\"], votes[\"candi2\"], votes[\"candi3\"]);\r\n    }\r\n}\r\n",
  "sourcePath": "C:\\Users\\ADMIN\\Desktop\\Project\\contracts\\Election.sol",
  "compiler": {
    "name": "solc",
    "version": "0.8.17+commit.8df45f5f.Emscripten.clang"
  },
  "schemaVersion": "3.4.16",
  "updatedAt": "2024-04-10T20:56:40.973Z",
  "networkType": "ethereum",
  "devdoc": {
    "kind": "dev",
    "methods": {},
    "version": 1
  },
  "userdoc": {
    "kind": "user",
    "methods": {},
    "version": 1
  }
}